{
  "_format": "hh-sol-artifact-1",
  "contractName": "Exchange",
  "sourceName": "contracts/Exchange.sol",
  "abi": [
    {
      "inputs": [
        {
          "internalType": "address",
          "name": "_token",
          "type": "address"
        }
      ],
      "stateMutability": "nonpayable",
      "type": "constructor"
    },
    {
      "inputs": [
        {
          "internalType": "address",
          "name": "spender",
          "type": "address"
        },
        {
          "internalType": "uint256",
          "name": "allowance",
          "type": "uint256"
        },
        {
          "internalType": "uint256",
          "name": "needed",
          "type": "uint256"
        }
      ],
      "name": "ERC20InsufficientAllowance",
      "type": "error"
    },
    {
      "inputs": [
        {
          "internalType": "address",
          "name": "sender",
          "type": "address"
        },
        {
          "internalType": "uint256",
          "name": "balance",
          "type": "uint256"
        },
        {
          "internalType": "uint256",
          "name": "needed",
          "type": "uint256"
        }
      ],
      "name": "ERC20InsufficientBalance",
      "type": "error"
    },
    {
      "inputs": [
        {
          "internalType": "address",
          "name": "approver",
          "type": "address"
        }
      ],
      "name": "ERC20InvalidApprover",
      "type": "error"
    },
    {
      "inputs": [
        {
          "internalType": "address",
          "name": "receiver",
          "type": "address"
        }
      ],
      "name": "ERC20InvalidReceiver",
      "type": "error"
    },
    {
      "inputs": [
        {
          "internalType": "address",
          "name": "sender",
          "type": "address"
        }
      ],
      "name": "ERC20InvalidSender",
      "type": "error"
    },
    {
      "inputs": [
        {
          "internalType": "address",
          "name": "spender",
          "type": "address"
        }
      ],
      "name": "ERC20InvalidSpender",
      "type": "error"
    },
    {
      "anonymous": false,
      "inputs": [
        {
          "indexed": true,
          "internalType": "address",
          "name": "owner",
          "type": "address"
        },
        {
          "indexed": true,
          "internalType": "address",
          "name": "spender",
          "type": "address"
        },
        {
          "indexed": false,
          "internalType": "uint256",
          "name": "value",
          "type": "uint256"
        }
      ],
      "name": "Approval",
      "type": "event"
    },
    {
      "anonymous": false,
      "inputs": [
        {
          "indexed": true,
          "internalType": "address",
          "name": "from",
          "type": "address"
        },
        {
          "indexed": true,
          "internalType": "address",
          "name": "to",
          "type": "address"
        },
        {
          "indexed": false,
          "internalType": "uint256",
          "name": "value",
          "type": "uint256"
        }
      ],
      "name": "Transfer",
      "type": "event"
    },
    {
      "inputs": [
        {
          "internalType": "uint256",
          "name": "_tokenAmount",
          "type": "uint256"
        }
      ],
      "name": "addLiquidity",
      "outputs": [
        {
          "internalType": "uint256",
          "name": "",
          "type": "uint256"
        }
      ],
      "stateMutability": "payable",
      "type": "function"
    },
    {
      "inputs": [
        {
          "internalType": "address",
          "name": "owner",
          "type": "address"
        },
        {
          "internalType": "address",
          "name": "spender",
          "type": "address"
        }
      ],
      "name": "allowance",
      "outputs": [
        {
          "internalType": "uint256",
          "name": "",
          "type": "uint256"
        }
      ],
      "stateMutability": "view",
      "type": "function"
    },
    {
      "inputs": [
        {
          "internalType": "address",
          "name": "spender",
          "type": "address"
        },
        {
          "internalType": "uint256",
          "name": "value",
          "type": "uint256"
        }
      ],
      "name": "approve",
      "outputs": [
        {
          "internalType": "bool",
          "name": "",
          "type": "bool"
        }
      ],
      "stateMutability": "nonpayable",
      "type": "function"
    },
    {
      "inputs": [
        {
          "internalType": "address",
          "name": "account",
          "type": "address"
        }
      ],
      "name": "balanceOf",
      "outputs": [
        {
          "internalType": "uint256",
          "name": "",
          "type": "uint256"
        }
      ],
      "stateMutability": "view",
      "type": "function"
    },
    {
      "inputs": [],
      "name": "decimals",
      "outputs": [
        {
          "internalType": "uint8",
          "name": "",
          "type": "uint8"
        }
      ],
      "stateMutability": "view",
      "type": "function"
    },
    {
      "inputs": [
        {
          "internalType": "uint256",
          "name": "_minTokens",
          "type": "uint256"
        }
      ],
      "name": "ethToTokenSwap",
      "outputs": [],
      "stateMutability": "payable",
      "type": "function"
    },
    {
      "inputs": [],
      "name": "factoryAddress",
      "outputs": [
        {
          "internalType": "address",
          "name": "",
          "type": "address"
        }
      ],
      "stateMutability": "view",
      "type": "function"
    },
    {
      "inputs": [
        {
          "internalType": "uint256",
          "name": "_tokenSold",
          "type": "uint256"
        }
      ],
      "name": "getEthAmount",
      "outputs": [
        {
          "internalType": "uint256",
          "name": "",
          "type": "uint256"
        }
      ],
      "stateMutability": "view",
      "type": "function"
    },
    {
      "inputs": [
        {
          "internalType": "uint256",
          "name": "inputReserve",
          "type": "uint256"
        },
        {
          "internalType": "uint256",
          "name": "outputReserve",
          "type": "uint256"
        }
      ],
      "name": "getPrice",
      "outputs": [
        {
          "internalType": "uint256",
          "name": "",
          "type": "uint256"
        }
      ],
      "stateMutability": "pure",
      "type": "function"
    },
    {
      "inputs": [],
      "name": "getReserve",
      "outputs": [
        {
          "internalType": "uint256",
          "name": "",
          "type": "uint256"
        }
      ],
      "stateMutability": "view",
      "type": "function"
    },
    {
      "inputs": [
        {
          "internalType": "uint256",
          "name": "_ethSold",
          "type": "uint256"
        }
      ],
      "name": "getTokenAmount",
      "outputs": [
        {
          "internalType": "uint256",
          "name": "",
          "type": "uint256"
        }
      ],
      "stateMutability": "view",
      "type": "function"
    },
    {
      "inputs": [],
      "name": "name",
      "outputs": [
        {
          "internalType": "string",
          "name": "",
          "type": "string"
        }
      ],
      "stateMutability": "view",
      "type": "function"
    },
    {
      "inputs": [
        {
          "internalType": "uint256",
          "name": "_amount",
          "type": "uint256"
        }
      ],
      "name": "removeLiquidity",
      "outputs": [
        {
          "internalType": "uint256",
          "name": "",
          "type": "uint256"
        },
        {
          "internalType": "uint256",
          "name": "",
          "type": "uint256"
        }
      ],
      "stateMutability": "nonpayable",
      "type": "function"
    },
    {
      "inputs": [],
      "name": "symbol",
      "outputs": [
        {
          "internalType": "string",
          "name": "",
          "type": "string"
        }
      ],
      "stateMutability": "view",
      "type": "function"
    },
    {
      "inputs": [],
      "name": "tokenAddress",
      "outputs": [
        {
          "internalType": "address",
          "name": "",
          "type": "address"
        }
      ],
      "stateMutability": "view",
      "type": "function"
    },
    {
      "inputs": [
        {
          "internalType": "uint256",
          "name": "_tokensSold",
          "type": "uint256"
        },
        {
          "internalType": "uint256",
          "name": "_minEth",
          "type": "uint256"
        }
      ],
      "name": "tokenToEthSwap",
      "outputs": [],
      "stateMutability": "nonpayable",
      "type": "function"
    },
    {
      "inputs": [
        {
          "internalType": "uint256",
          "name": "_tokensSold",
          "type": "uint256"
        },
        {
          "internalType": "uint256",
          "name": "_minTokensBought",
          "type": "uint256"
        },
        {
          "internalType": "address",
          "name": "_tokenAddress",
          "type": "address"
        }
      ],
      "name": "tokenToTokenSwap",
      "outputs": [],
      "stateMutability": "nonpayable",
      "type": "function"
    },
    {
      "inputs": [],
      "name": "totalSupply",
      "outputs": [
        {
          "internalType": "uint256",
          "name": "",
          "type": "uint256"
        }
      ],
      "stateMutability": "view",
      "type": "function"
    },
    {
      "inputs": [
        {
          "internalType": "address",
          "name": "to",
          "type": "address"
        },
        {
          "internalType": "uint256",
          "name": "value",
          "type": "uint256"
        }
      ],
      "name": "transfer",
      "outputs": [
        {
          "internalType": "bool",
          "name": "",
          "type": "bool"
        }
      ],
      "stateMutability": "nonpayable",
      "type": "function"
    },
    {
      "inputs": [
        {
          "internalType": "address",
          "name": "from",
          "type": "address"
        },
        {
          "internalType": "address",
          "name": "to",
          "type": "address"
        },
        {
          "internalType": "uint256",
          "name": "value",
          "type": "uint256"
        }
      ],
      "name": "transferFrom",
      "outputs": [
        {
          "internalType": "bool",
          "name": "",
          "type": "bool"
        }
      ],
      "stateMutability": "nonpayable",
      "type": "function"
    }
  ],
  "bytecode": "0x60806040523480156200001157600080fd5b5060405162002a4c38038062002a4c83398181016040528101906200003791906200022e565b6040518060400160405280600b81526020017f5a756e69737761702d56310000000000000000000000000000000000000000008152506040518060400160405280600781526020017f5a554e492d5631000000000000000000000000000000000000000000000000008152508160039081620000b49190620004da565b508060049081620000c69190620004da565b505050600073ffffffffffffffffffffffffffffffffffffffff168173ffffffffffffffffffffffffffffffffffffffff16036200013b576040517f08c379a0000000000000000000000000000000000000000000000000000000008152600401620001329062000622565b60405180910390fd5b80600560006101000a81548173ffffffffffffffffffffffffffffffffffffffff021916908373ffffffffffffffffffffffffffffffffffffffff16021790555033600660006101000a81548173ffffffffffffffffffffffffffffffffffffffff021916908373ffffffffffffffffffffffffffffffffffffffff1602179055505062000644565b600080fd5b600073ffffffffffffffffffffffffffffffffffffffff82169050919050565b6000620001f682620001c9565b9050919050565b6200020881620001e9565b81146200021457600080fd5b50565b6000815190506200022881620001fd565b92915050565b600060208284031215620002475762000246620001c4565b5b6000620002578482850162000217565b91505092915050565b600081519050919050565b7f4e487b7100000000000000000000000000000000000000000000000000000000600052604160045260246000fd5b7f4e487b7100000000000000000000000000000000000000000000000000000000600052602260045260246000fd5b60006002820490506001821680620002e257607f821691505b602082108103620002f857620002f76200029a565b5b50919050565b60008190508160005260206000209050919050565b60006020601f8301049050919050565b600082821b905092915050565b600060088302620003627fffffffffffffffffffffffffffffffffffffffffffffffffffffffffffffffff8262000323565b6200036e868362000323565b95508019841693508086168417925050509392505050565b6000819050919050565b6000819050919050565b6000620003bb620003b5620003af8462000386565b62000390565b62000386565b9050919050565b6000819050919050565b620003d7836200039a565b620003ef620003e682620003c2565b84845462000330565b825550505050565b600090565b62000406620003f7565b62000413818484620003cc565b505050565b5b818110156200043b576200042f600082620003fc565b60018101905062000419565b5050565b601f8211156200048a576200045481620002fe565b6200045f8462000313565b810160208510156200046f578190505b620004876200047e8562000313565b83018262000418565b50505b505050565b600082821c905092915050565b6000620004af600019846008026200048f565b1980831691505092915050565b6000620004ca83836200049c565b9150826002028217905092915050565b620004e58262000260565b67ffffffffffffffff8111156200050157620005006200026b565b5b6200050d8254620002c9565b6200051a8282856200043f565b600060209050601f8311600181146200055257600084156200053d578287015190505b620005498582620004bc565b865550620005b9565b601f1984166200056286620002fe565b60005b828110156200058c5784890151825560018201915060208501945060208101905062000565565b86831015620005ac5784890151620005a8601f8916826200049c565b8355505b6001600288020188555050505b505050505050565b600082825260208201905092915050565b7f696e76616c696420746f6b656e20616464726573730000000000000000000000600082015250565b60006200060a601583620005c1565b91506200061782620005d2565b602082019050919050565b600060208201905081810360008301526200063d81620005fb565b9050919050565b6123f880620006546000396000f3fe60806040526004361061011f5760003560e01c806395d89b41116100a0578063c2507ac111610064578063c2507ac11461042d578063dd62ed3e1461046a578063e0486c8a146104a7578063f7a7e324146104d0578063f979dcd7146104f95761011f565b806395d89b4114610331578063966dae0e1461035c5780639c8f9f23146103875780639d76ea58146103c5578063a9059cbb146103f05761011f565b806351c6590a116100e757806351c6590a1461021f57806359bf5d391461024f5780635cf4ee911461027a57806370a08231146102b75780638fc7a25d146102f45761011f565b806306fdde0314610124578063095ea7b31461014f57806318160ddd1461018c57806323b872dd146101b7578063313ce567146101f4575b600080fd5b34801561013057600080fd5b50610139610515565b6040516101469190611a33565b60405180910390f35b34801561015b57600080fd5b5061017660048036038101906101719190611aee565b6105a7565b6040516101839190611b49565b60405180910390f35b34801561019857600080fd5b506101a16105ca565b6040516101ae9190611b73565b60405180910390f35b3480156101c357600080fd5b506101de60048036038101906101d99190611b8e565b6105d4565b6040516101eb9190611b49565b60405180910390f35b34801561020057600080fd5b50610209610603565b6040516102169190611bfd565b60405180910390f35b61023960048036038101906102349190611c18565b61060c565b6040516102469190611b73565b60405180910390f35b34801561025b57600080fd5b50610264610839565b6040516102719190611b73565b60405180910390f35b34801561028657600080fd5b506102a1600480360381019061029c9190611c45565b6108dc565b6040516102ae9190611b73565b60405180910390f35b3480156102c357600080fd5b506102de60048036038101906102d99190611c85565b61094d565b6040516102eb9190611b73565b60405180910390f35b34801561030057600080fd5b5061031b60048036038101906103169190611c18565b610995565b6040516103289190611b73565b60405180910390f35b34801561033d57600080fd5b506103466109f8565b6040516103539190611a33565b60405180910390f35b34801561036857600080fd5b50610371610a8a565b60405161037e9190611cc1565b60405180910390f35b34801561039357600080fd5b506103ae60048036038101906103a99190611c18565b610ab0565b6040516103bc929190611cdc565b60405180910390f35b3480156103d157600080fd5b506103da610c40565b6040516103e79190611cc1565b60405180910390f35b3480156103fc57600080fd5b5061041760048036038101906104129190611aee565b610c66565b6040516104249190611b49565b60405180910390f35b34801561043957600080fd5b50610454600480360381019061044f9190611c18565b610c89565b6040516104619190611b73565b60405180910390f35b34801561047657600080fd5b50610491600480360381019061048c9190611d05565b610cec565b60405161049e9190611b73565b60405180910390f35b3480156104b357600080fd5b506104ce60048036038101906104c99190611c45565b610d73565b005b3480156104dc57600080fd5b506104f760048036038101906104f29190611d45565b610ec1565b005b610513600480360381019061050e9190611c18565b61113f565b005b60606003805461052490611dc7565b80601f016020809104026020016040519081016040528092919081815260200182805461055090611dc7565b801561059d5780601f106105725761010080835404028352916020019161059d565b820191906000526020600020905b81548152906001019060200180831161058057829003601f168201915b5050505050905090565b6000806105b261114c565b90506105bf818585611154565b600191505092915050565b6000600254905090565b6000806105df61114c565b90506105ec858285611166565b6105f78585856111fa565b60019150509392505050565b60006012905090565b600080610617610839565b036106dd576000600560009054906101000a900473ffffffffffffffffffffffffffffffffffffffff1690508073ffffffffffffffffffffffffffffffffffffffff166323b872dd3330866040518463ffffffff1660e01b815260040161068093929190611df8565b6020604051808303816000875af115801561069f573d6000803e3d6000fd5b505050506040513d601f19601f820116820180604052508101906106c39190611e5b565b5060004790506106d333826112ee565b8092505050610834565b600034476106eb9190611eb7565b905060006106f7610839565b905060008282346107089190611eeb565b6107129190611f5c565b905080851015610757576040517f08c379a000000000000000000000000000000000000000000000000000000000815260040161074e90611fd9565b60405180910390fd5b6000600560009054906101000a900473ffffffffffffffffffffffffffffffffffffffff1690508073ffffffffffffffffffffffffffffffffffffffff166323b872dd3330856040518463ffffffff1660e01b81526004016107bb93929190611df8565b6020604051808303816000875af11580156107da573d6000803e3d6000fd5b505050506040513d601f19601f820116820180604052508101906107fe9190611e5b565b506000843461080b6105ca565b6108159190611eeb565b61081f9190611f5c565b905061082b33826112ee565b80955050505050505b919050565b6000600560009054906101000a900473ffffffffffffffffffffffffffffffffffffffff1673ffffffffffffffffffffffffffffffffffffffff166370a08231306040518263ffffffff1660e01b81526004016108969190611cc1565b602060405180830381865afa1580156108b3573d6000803e3d6000fd5b505050506040513d601f19601f820116820180604052508101906108d7919061200e565b905090565b600080831180156108ed5750600082115b61092c576040517f08c379a000000000000000000000000000000000000000000000000000000000815260040161092390612087565b60405180910390fd5b816103e88461093b9190611eeb565b6109459190611f5c565b905092915050565b60008060008373ffffffffffffffffffffffffffffffffffffffff1673ffffffffffffffffffffffffffffffffffffffff168152602001908152602001600020549050919050565b60008082116109d9576040517f08c379a00000000000000000000000000000000000000000000000000000000081526004016109d0906120f3565b60405180910390fd5b60006109e3610839565b90506109f0838247611370565b915050919050565b606060048054610a0790611dc7565b80601f0160208091040260200160405190810160405280929190818152602001828054610a3390611dc7565b8015610a805780601f10610a5557610100808354040283529160200191610a80565b820191906000526020600020905b815481529060010190602001808311610a6357829003601f168201915b5050505050905090565b600660009054906101000a900473ffffffffffffffffffffffffffffffffffffffff1681565b60008060008311610af6576040517f08c379a0000000000000000000000000000000000000000000000000000000008152600401610aed9061215f565b60405180910390fd5b6000610b006105ca565b8447610b0c9190611eeb565b610b169190611f5c565b90506000610b226105ca565b85610b2b610839565b610b359190611eeb565b610b3f9190611f5c565b9050610b4b3386611415565b3373ffffffffffffffffffffffffffffffffffffffff166108fc839081150290604051600060405180830381858888f19350505050158015610b91573d6000803e3d6000fd5b50600560009054906101000a900473ffffffffffffffffffffffffffffffffffffffff1673ffffffffffffffffffffffffffffffffffffffff1663a9059cbb33836040518363ffffffff1660e01b8152600401610bef92919061217f565b6020604051808303816000875af1158015610c0e573d6000803e3d6000fd5b505050506040513d601f19601f82011682018060405250810190610c329190611e5b565b508181935093505050915091565b600560009054906101000a900473ffffffffffffffffffffffffffffffffffffffff1681565b600080610c7161114c565b9050610c7e8185856111fa565b600191505092915050565b6000808211610ccd576040517f08c379a0000000000000000000000000000000000000000000000000000000008152600401610cc4906121f4565b60405180910390fd5b6000610cd7610839565b9050610ce4834783611370565b915050919050565b6000600160008473ffffffffffffffffffffffffffffffffffffffff1673ffffffffffffffffffffffffffffffffffffffff16815260200190815260200160002060008373ffffffffffffffffffffffffffffffffffffffff1673ffffffffffffffffffffffffffffffffffffffff16815260200190815260200160002054905092915050565b6000610d7d610839565b90506000610d8c848347611370565b905082811015610dd1576040517f08c379a0000000000000000000000000000000000000000000000000000000008152600401610dc890612260565b60405180910390fd5b600560009054906101000a900473ffffffffffffffffffffffffffffffffffffffff1673ffffffffffffffffffffffffffffffffffffffff166323b872dd3330876040518463ffffffff1660e01b8152600401610e3093929190611df8565b6020604051808303816000875af1158015610e4f573d6000803e3d6000fd5b505050506040513d601f19601f82011682018060405250810190610e739190611e5b565b503373ffffffffffffffffffffffffffffffffffffffff166108fc829081150290604051600060405180830381858888f19350505050158015610eba573d6000803e3d6000fd5b5050505050565b6000600660009054906101000a900473ffffffffffffffffffffffffffffffffffffffff1673ffffffffffffffffffffffffffffffffffffffff166306f2bf62836040518263ffffffff1660e01b8152600401610f1e9190611cc1565b6020604051808303816000875af1158015610f3d573d6000803e3d6000fd5b505050506040513d601f19601f82011682018060405250810190610f619190612295565b90503073ffffffffffffffffffffffffffffffffffffffff168173ffffffffffffffffffffffffffffffffffffffff1614158015610fcc5750600073ffffffffffffffffffffffffffffffffffffffff168173ffffffffffffffffffffffffffffffffffffffff1614155b61100b576040517f08c379a00000000000000000000000000000000000000000000000000000000081526004016110029061230e565b60405180910390fd5b6000611015610839565b90506000611024868347611370565b9050600560009054906101000a900473ffffffffffffffffffffffffffffffffffffffff1673ffffffffffffffffffffffffffffffffffffffff166323b872dd3330896040518463ffffffff1660e01b815260040161108593929190611df8565b6020604051808303816000875af11580156110a4573d6000803e3d6000fd5b505050506040513d601f19601f820116820180604052508101906110c89190611e5b565b508273ffffffffffffffffffffffffffffffffffffffff1663389d9a408287336040518463ffffffff1660e01b815260040161110592919061232e565b6000604051808303818588803b15801561111e57600080fd5b505af1158015611132573d6000803e3d6000fd5b5050505050505050505050565b6111498133611497565b50565b600033905090565b61116183838360016115a7565b505050565b60006111728484610cec565b90507fffffffffffffffffffffffffffffffffffffffffffffffffffffffffffffffff81146111f457818110156111e4578281836040517ffb8f41b20000000000000000000000000000000000000000000000000000000081526004016111db93929190612357565b60405180910390fd5b6111f3848484840360006115a7565b5b50505050565b600073ffffffffffffffffffffffffffffffffffffffff168373ffffffffffffffffffffffffffffffffffffffff160361126c5760006040517f96c6fd1e0000000000000000000000000000000000000000000000000000000081526004016112639190611cc1565b60405180910390fd5b600073ffffffffffffffffffffffffffffffffffffffff168273ffffffffffffffffffffffffffffffffffffffff16036112de5760006040517fec442f050000000000000000000000000000000000000000000000000000000081526004016112d59190611cc1565b60405180910390fd5b6112e983838361177e565b505050565b600073ffffffffffffffffffffffffffffffffffffffff168273ffffffffffffffffffffffffffffffffffffffff16036113605760006040517fec442f050000000000000000000000000000000000000000000000000000000081526004016113579190611cc1565b60405180910390fd5b61136c6000838361177e565b5050565b600080831180156113815750600082115b6113c0576040517f08c379a00000000000000000000000000000000000000000000000000000000081526004016113b790612087565b60405180910390fd5b60006063856113cf9190611eeb565b9050600083826113df9190611eeb565b90506000826064876113f19190611eeb565b6113fb919061238e565b905080826114099190611f5c565b93505050509392505050565b600073ffffffffffffffffffffffffffffffffffffffff168273ffffffffffffffffffffffffffffffffffffffff16036114875760006040517f96c6fd1e00000000000000000000000000000000000000000000000000000000815260040161147e9190611cc1565b60405180910390fd5b6114938260008361177e565b5050565b60006114a1610839565b905060006114bb3434476114b59190611eb7565b84611370565b905083811015611500576040517f08c379a00000000000000000000000000000000000000000000000000000000081526004016114f790612260565b60405180910390fd5b600560009054906101000a900473ffffffffffffffffffffffffffffffffffffffff1673ffffffffffffffffffffffffffffffffffffffff1663a9059cbb84836040518363ffffffff1660e01b815260040161155d92919061217f565b6020604051808303816000875af115801561157c573d6000803e3d6000fd5b505050506040513d601f19601f820116820180604052508101906115a09190611e5b565b5050505050565b600073ffffffffffffffffffffffffffffffffffffffff168473ffffffffffffffffffffffffffffffffffffffff16036116195760006040517fe602df050000000000000000000000000000000000000000000000000000000081526004016116109190611cc1565b60405180910390fd5b600073ffffffffffffffffffffffffffffffffffffffff168373ffffffffffffffffffffffffffffffffffffffff160361168b5760006040517f94280d620000000000000000000000000000000000000000000000000000000081526004016116829190611cc1565b60405180910390fd5b81600160008673ffffffffffffffffffffffffffffffffffffffff1673ffffffffffffffffffffffffffffffffffffffff16815260200190815260200160002060008573ffffffffffffffffffffffffffffffffffffffff1673ffffffffffffffffffffffffffffffffffffffff168152602001908152602001600020819055508015611778578273ffffffffffffffffffffffffffffffffffffffff168473ffffffffffffffffffffffffffffffffffffffff167f8c5be1e5ebec7d5bd14f71427d1e84f3dd0314c0f7b2291e5b200ac8c7c3b9258460405161176f9190611b73565b60405180910390a35b50505050565b600073ffffffffffffffffffffffffffffffffffffffff168373ffffffffffffffffffffffffffffffffffffffff16036117d05780600260008282546117c4919061238e565b925050819055506118a3565b60008060008573ffffffffffffffffffffffffffffffffffffffff1673ffffffffffffffffffffffffffffffffffffffff1681526020019081526020016000205490508181101561185c578381836040517fe450d38c00000000000000000000000000000000000000000000000000000000815260040161185393929190612357565b60405180910390fd5b8181036000808673ffffffffffffffffffffffffffffffffffffffff1673ffffffffffffffffffffffffffffffffffffffff16815260200190815260200160002081905550505b600073ffffffffffffffffffffffffffffffffffffffff168273ffffffffffffffffffffffffffffffffffffffff16036118ec5780600260008282540392505081905550611939565b806000808473ffffffffffffffffffffffffffffffffffffffff1673ffffffffffffffffffffffffffffffffffffffff168152602001908152602001600020600082825401925050819055505b8173ffffffffffffffffffffffffffffffffffffffff168373ffffffffffffffffffffffffffffffffffffffff167fddf252ad1be2c89b69c2b068fc378daa952ba7f163c4a11628f55a4df523b3ef836040516119969190611b73565b60405180910390a3505050565b600081519050919050565b600082825260208201905092915050565b60005b838110156119dd5780820151818401526020810190506119c2565b60008484015250505050565b6000601f19601f8301169050919050565b6000611a05826119a3565b611a0f81856119ae565b9350611a1f8185602086016119bf565b611a28816119e9565b840191505092915050565b60006020820190508181036000830152611a4d81846119fa565b905092915050565b600080fd5b600073ffffffffffffffffffffffffffffffffffffffff82169050919050565b6000611a8582611a5a565b9050919050565b611a9581611a7a565b8114611aa057600080fd5b50565b600081359050611ab281611a8c565b92915050565b6000819050919050565b611acb81611ab8565b8114611ad657600080fd5b50565b600081359050611ae881611ac2565b92915050565b60008060408385031215611b0557611b04611a55565b5b6000611b1385828601611aa3565b9250506020611b2485828601611ad9565b9150509250929050565b60008115159050919050565b611b4381611b2e565b82525050565b6000602082019050611b5e6000830184611b3a565b92915050565b611b6d81611ab8565b82525050565b6000602082019050611b886000830184611b64565b92915050565b600080600060608486031215611ba757611ba6611a55565b5b6000611bb586828701611aa3565b9350506020611bc686828701611aa3565b9250506040611bd786828701611ad9565b9150509250925092565b600060ff82169050919050565b611bf781611be1565b82525050565b6000602082019050611c126000830184611bee565b92915050565b600060208284031215611c2e57611c2d611a55565b5b6000611c3c84828501611ad9565b91505092915050565b60008060408385031215611c5c57611c5b611a55565b5b6000611c6a85828601611ad9565b9250506020611c7b85828601611ad9565b9150509250929050565b600060208284031215611c9b57611c9a611a55565b5b6000611ca984828501611aa3565b91505092915050565b611cbb81611a7a565b82525050565b6000602082019050611cd66000830184611cb2565b92915050565b6000604082019050611cf16000830185611b64565b611cfe6020830184611b64565b9392505050565b60008060408385031215611d1c57611d1b611a55565b5b6000611d2a85828601611aa3565b9250506020611d3b85828601611aa3565b9150509250929050565b600080600060608486031215611d5e57611d5d611a55565b5b6000611d6c86828701611ad9565b9350506020611d7d86828701611ad9565b9250506040611d8e86828701611aa3565b9150509250925092565b7f4e487b7100000000000000000000000000000000000000000000000000000000600052602260045260246000fd5b60006002820490506001821680611ddf57607f821691505b602082108103611df257611df1611d98565b5b50919050565b6000606082019050611e0d6000830186611cb2565b611e1a6020830185611cb2565b611e276040830184611b64565b949350505050565b611e3881611b2e565b8114611e4357600080fd5b50565b600081519050611e5581611e2f565b92915050565b600060208284031215611e7157611e70611a55565b5b6000611e7f84828501611e46565b91505092915050565b7f4e487b7100000000000000000000000000000000000000000000000000000000600052601160045260246000fd5b6000611ec282611ab8565b9150611ecd83611ab8565b9250828203905081811115611ee557611ee4611e88565b5b92915050565b6000611ef682611ab8565b9150611f0183611ab8565b9250828202611f0f81611ab8565b91508282048414831517611f2657611f25611e88565b5b5092915050565b7f4e487b7100000000000000000000000000000000000000000000000000000000600052601260045260246000fd5b6000611f6782611ab8565b9150611f7283611ab8565b925082611f8257611f81611f2d565b5b828204905092915050565b7f696e73756666696369656e7420746f6b656e20616d6f756e7400000000000000600082015250565b6000611fc36019836119ae565b9150611fce82611f8d565b602082019050919050565b60006020820190508181036000830152611ff281611fb6565b9050919050565b60008151905061200881611ac2565b92915050565b60006020828403121561202457612023611a55565b5b600061203284828501611ff9565b91505092915050565b7f696e76616c696420726573657276657300000000000000000000000000000000600082015250565b60006120716010836119ae565b915061207c8261203b565b602082019050919050565b600060208201905081810360008301526120a081612064565b9050919050565b7f746f6b656e536f6c6420697320746f6f20736d616c6c00000000000000000000600082015250565b60006120dd6016836119ae565b91506120e8826120a7565b602082019050919050565b6000602082019050818103600083015261210c816120d0565b9050919050565b7f696e76616c696420616d6f756e74000000000000000000000000000000000000600082015250565b6000612149600e836119ae565b915061215482612113565b602082019050919050565b600060208201905081810360008301526121788161213c565b9050919050565b60006040820190506121946000830185611cb2565b6121a16020830184611b64565b9392505050565b7f657468536f6c6420697320746f6f20736d616c6c000000000000000000000000600082015250565b60006121de6014836119ae565b91506121e9826121a8565b602082019050919050565b6000602082019050818103600083015261220d816121d1565b9050919050565b7f696e73756666696369656e74206f757470757420616d6f756e74000000000000600082015250565b600061224a601a836119ae565b915061225582612214565b602082019050919050565b600060208201905081810360008301526122798161223d565b9050919050565b60008151905061228f81611a8c565b92915050565b6000602082840312156122ab576122aa611a55565b5b60006122b984828501612280565b91505092915050565b7f696e76616c69642065786368616e676520616464726573730000000000000000600082015250565b60006122f86018836119ae565b9150612303826122c2565b602082019050919050565b60006020820190508181036000830152612327816122eb565b9050919050565b60006040820190506123436000830185611b64565b6123506020830184611cb2565b9392505050565b600060608201905061236c6000830186611cb2565b6123796020830185611b64565b6123866040830184611b64565b949350505050565b600061239982611ab8565b91506123a483611ab8565b92508282019050808211156123bc576123bb611e88565b5b9291505056fea2646970667358221220f513207dac90196a31d1a321ed972367ec8be81b991defc2e32d5c3843ab976f64736f6c63430008180033",
  "linkReferences": {},
  "deployedLinkReferences": {}
}